{
  "contractName": "sahcoins_ico",
  "abi": [
    {
      "inputs": [],
      "name": "max_sahcoins",
      "outputs": [
        {
          "internalType": "uint256",
          "name": "",
          "type": "uint256"
        }
      ],
      "stateMutability": "view",
      "type": "function",
      "constant": true
    },
    {
      "inputs": [],
      "name": "total_sahcoins_bought",
      "outputs": [
        {
          "internalType": "uint256",
          "name": "",
          "type": "uint256"
        }
      ],
      "stateMutability": "view",
      "type": "function",
      "constant": true
    },
    {
      "inputs": [],
      "name": "usd_to_sahcoins",
      "outputs": [
        {
          "internalType": "uint256",
          "name": "",
          "type": "uint256"
        }
      ],
      "stateMutability": "view",
      "type": "function",
      "constant": true
    },
    {
      "inputs": [
        {
          "internalType": "address",
          "name": "investor",
          "type": "address"
        }
      ],
      "name": "equity_in_sahcoins",
      "outputs": [
        {
          "internalType": "uint256",
          "name": "",
          "type": "uint256"
        }
      ],
      "stateMutability": "view",
      "type": "function",
      "constant": true
    },
    {
      "inputs": [
        {
          "internalType": "address",
          "name": "investor",
          "type": "address"
        }
      ],
      "name": "equity_in_usd",
      "outputs": [
        {
          "internalType": "uint256",
          "name": "",
          "type": "uint256"
        }
      ],
      "stateMutability": "view",
      "type": "function",
      "constant": true
    },
    {
      "inputs": [
        {
          "internalType": "address",
          "name": "investor",
          "type": "address"
        },
        {
          "internalType": "uint256",
          "name": "usd_invested",
          "type": "uint256"
        }
      ],
      "name": "buy_sahcoins",
      "outputs": [],
      "stateMutability": "nonpayable",
      "type": "function"
    },
    {
      "inputs": [
        {
          "internalType": "address",
          "name": "investor",
          "type": "address"
        },
        {
          "internalType": "uint256",
          "name": "sahcoins_sold",
          "type": "uint256"
        }
      ],
      "name": "sell_sahcoins",
      "outputs": [],
      "stateMutability": "nonpayable",
      "type": "function"
    }
  ],
  "bytecode": "0x6080604052620f42406000556103e8600155600060025534801561002257600080fd5b506103a1806100326000396000f3fe608060405234801561001057600080fd5b506004361061007d5760003560e01c8063a4e85f8f1161005b578063a4e85f8f146100fb578063b3ef0ea214610104578063c77cbf5814610117578063d87466f31461012057600080fd5b806310c51c1b14610082578063123931c6146100bd578063559ccebd146100e6575b600080fd5b6100ab610090366004610299565b6001600160a01b031660009081526004602052604090205490565b60405190815260200160405180910390f35b6100ab6100cb366004610299565b6001600160a01b031660009081526003602052604090205490565b6100f96100f43660046102bb565b610129565b005b6100ab60015481565b6100f96101123660046102bb565b6101f3565b6100ab60025481565b6100ab60005481565b806000546002546001548361013e91906102fb565b610148919061031a565b1061015257600080fd5b60006001548361016291906102fb565b6001600160a01b03851660009081526003602052604081208054929350839290919061018f90849061031a565b90915550506001600160a01b0384166000908152600360205260409020546101ba906103e890610332565b6001600160a01b038516600090815260046020526040812091909155600280548392906101e890849061031a565b909155505050505050565b6001600160a01b0382166000908152600360205260408120805483929061021b908490610354565b90915550506001600160a01b038216600090815260036020526040902054610246906103e890610332565b6001600160a01b03831660009081526004602052604081209190915560028054839290610274908490610354565b90915550505050565b80356001600160a01b038116811461029457600080fd5b919050565b6000602082840312156102ab57600080fd5b6102b48261027d565b9392505050565b600080604083850312156102ce57600080fd5b6102d78361027d565b946020939093013593505050565b634e487b7160e01b600052601160045260246000fd5b6000816000190483118215151615610315576103156102e5565b500290565b6000821982111561032d5761032d6102e5565b500190565b60008261034f57634e487b7160e01b600052601260045260246000fd5b500490565b600082821015610366576103666102e5565b50039056fea2646970667358221220d11382b11d171b99763dde80fb966c4e78fe69624646b81ed9884114b66a649764736f6c634300080d0033",
  "immutableReferences": {},
  "source": "// SPDX-License-Identifier: UNLICENSED\n// Sahcoin ICO\n\n// Version of compiler\npragma solidity ^0.8.13;\n\ncontract sahcoins_ico {\n    // Maximum number of Sahcoins available for sale\n    uint public max_sahcoins = 1000000;\n\n    // USD to Sahcoins conversion rate\n    uint public usd_to_sahcoins = 1000;\n\n    // Total number of Sahcoins bought by the investors\n    uint public total_sahcoins_bought = 0;\n\n    // Mapping from the investor address to its equity in Sahcoins and USD\n    mapping(address => uint) equity_sahcoins;\n    mapping(address => uint) equity_usd;\n\n    // Checking if an investory can buy Sahcoins\n    modifier can_buy_sahcoins(uint usd_invested) {\n        require(usd_invested * usd_to_sahcoins + total_sahcoins_bought < max_sahcoins);\n        _;\n    }\n\n    // Getting the equity in Sahcoins of an investor\n    function equity_in_sahcoins(address investor) external view returns(uint) {\n        return equity_sahcoins[investor];\n    }\n\n    // Getting the equity in USD of an investor\n    function equity_in_usd(address investor) external view returns(uint) {\n        return equity_usd[investor];\n    }\n\n    // Buying Sahcoins\n    function buy_sahcoins(address investor, uint usd_invested) external\n    can_buy_sahcoins(usd_invested) {\n        uint sahcoins_bought = usd_invested * usd_to_sahcoins;\n        equity_sahcoins[investor] += sahcoins_bought;\n        equity_usd[investor] = equity_sahcoins[investor] / 1000;\n        total_sahcoins_bought += sahcoins_bought;\n    }\n\n    // Selling Sahcoins\n    function sell_sahcoins(address investor, uint sahcoins_sold) external {\n        equity_sahcoins[investor] -= sahcoins_sold;\n        equity_usd[investor] = equity_sahcoins[investor] / 1000;\n        total_sahcoins_bought -= sahcoins_sold;\n    }\n}",
  "sourcePath": "/home/sahaj/Documents/Blockchain/SahcoinsICO/contracts/sahcoins_ico.sol",
  "compiler": {
    "name": "solc",
    "version": "0.8.13+commit.abaa5c0e.Emscripten.clang"
  },
  "schemaVersion": "3.4.16",
  "updatedAt": "2024-08-31T14:55:21.643Z",
  "networkType": "ethereum",
  "devdoc": {
    "kind": "dev",
    "methods": {},
    "version": 1
  },
  "userdoc": {
    "kind": "user",
    "methods": {},
    "version": 1
  }
}